:020000040800F2
:1000000000500020B10D0008610D0008670D0008C8
:100010006D0D0008730D0008790D00080000000048
:10002000000000000000000000000000B1460008D1
:100030007F0D000800000000914800088B0D0008AB
:10004000F90D0008F90D0008F90D0008F90D000878
:10005000F90D0008F90D0008F90D0008F90D000868
:10006000F90D0008F90D0008F90D0008F90D000858
:10007000F90D0008F90D0008F90D0008F90D000848
:10008000F90D0008F90D0008F90D0008F90D000838
:10009000F90D0008F90D0008F90D0008F90D000828
:1000A000F90D0008F90D0008F90D0008F90D000818
:1000B000F90D0008F90D0008F90D0008F90D000808
:1000C000F90D0008F90D0008F90D0008F90D0008F8
:1000D000F90D0008F90D0008F90D0008F90D0008E8
:1000E000F90D0008F90D0008F90D000800000000E6
:1000F0000000000000000000000000000000000000
:0C01000000000000000000005FF808F1A3
:1001100010B5054C237833B9044B13B10448AFF341
:1001200000800123237010BDA80000200000000003
:10013000004E000808B5034B1BB103490348AFF359
:10014000008008BD00000000AC000020004E000848
:1001500080B584B000AF78607B681B79FB737B68E7
:100160005B79BB73FB7B0F2B0DD87B681B68BA7B5D
:10017000F97B184600F00BF87B689B791946786884
:1001800000F04AF800E000BF1037BD4680BD80B4E3
:1001900083B000AF78600B46FB701346BB70FB78F2
:1001A0000F2B34D8FB78072B15D87B681B68FA789F
:1001B00092000F2101FA02F2D2431A407B681A60C2
:1001C0007B681B68B978FA78920001FA02F21A4348
:1001D0007B681A601CE0FB780F2B19D8FB78083B72
:1001E000FB707B685B68FA7892000F2101FA02F2DB
:1001F000D2431A407B685A607B685B68B978FA78AA
:10020000920001FA02F21A437B685A6000E000BFD4
:100210000C37BD4680BC704780B483B000AF7860B7
:100220000B46FB707B681B790F2B16D8FB78012BD4
:1002300009D17B681B791A46012303FA02F27B6815
:100240001B681A610AE07B681B791A46012303FACE
:1002500002F27B681B685A6100E000BF0C37BD46A4
:1002600080BC704780B483B000AF78607B681B7936
:100270000F2B01D9002309E07B681B689B687A6813
:100280001279D340DBB203F00103DBB218460C371E
:10029000BD4680BC704780B584B000AF7860002355
:1002A000FB730023BB737B68002B34D00023FB73EC
:1002B00015E0FB7B7A68DB00134401225A71FB7B5B
:1002C0007A68DB00134400229A71FB7BDB007A68BA
:1002D00013441846FFF73CFFFB7B0133FB73FB7BAA
:1002E000032BE6D90023BB7311E0BB7B7A68043390
:1002F000DB00134408225A71BB7B0433DB007A68AD
:1003000013441846FFF724FFBB7B0133BB73BB7B51
:10031000032BEAD900E000BF1037BD4680BD0000C6
:1003200080B584B000AF7860FF23FB730023BB73FC
:1003300043E000237B730AE07B7BDB007A68134495
:1003400001211846FFF768FF7B7B01337B737B7BC2
:10035000032BF1D9BB7BDB007A68134400211846DC
:10036000FFF75AFF00233B7321E03B7B0433DB00A4
:100370007A6813441846FFF775FF0346002B13D124
:1003800000BF3B7B0433DB007A6813441846FFF759
:1003900069FF0346002BF4D0BA7B3B7B0B499200EC
:1003A0000A4413441B78FB733B7B01333B733B7B59
:1003B000032BDAD9BB7B0133BB73BB7B032BB8D9CF
:1003C000FB7B18461037BD4680BD00BF7C4E000841
:1003D00080B584B000AF78600023FB737B68002B8E
:1003E0005ED07B6802225A717B6802225A737B6856
:1003F00002225A757B6800229A717B6800229A73E8
:100400007B6800229A757B681846FFF7A1FE7B681F
:1004100008331846FFF79CFE7B6810331846FFF739
:1004200097FE0023FB7318E0FB7B7A680333DB0045
:10043000134402225A71FB7B7A680333DB001344B6
:1004400000229A71FB7B0333DB007A681344184661
:10045000FFF77EFEFB7B0133FB73FB7B032BE3D9B2
:10046000142000F02DFD3321786800F01DF83221B2
:10047000786800F019F82821786800F015F80C2148
:10048000786800F011F80621786800F00DF88021F6
:10049000786800F009F80121786800F005F800E0BC
:1004A00000BF1037BD4680BD80B582B000AF786018
:1004B0000B46FB707B68002B1DD07B680021184623
:1004C000FFF7AAFE7B68083300211846FFF7A4FE59
:1004D000FB781B09DBB21946786800F08BF8786866
:1004E00000F0C4F8FB781946786800F083F8786863
:1004F00000F0BCF800E000BF0837BD4680BD80B505
:1005000082B000AF78600B46FB707B68002B1DD07B
:100510007B6801211846FFF77FFE7B6808330021C6
:100520001846FFF779FEFB781B09DBB2194678689D
:1005300000F060F8786800F099F8FB781946786860
:1005400000F058F8786800F091F800E000BF083734
:10055000BD4680BD80B582B000AF786008461146C8
:100560001A460346FB700B46BB7013467B707B68D4
:10057000002B0BD0BA78FB781946786800F09EF80B
:100580007B7819467868FFF7BAFF00E000BF0837AC
:10059000BD4680BD80B584B000AFF8607B600B467F
:1005A000FB721346BB72FB68002B13D0BA7AFB7A3E
:1005B0001946F86800F082F807E07B685A1C7A60F8
:1005C0001B781946F868FFF79AFF7B681B78002BA9
:1005D000F3D100E000BF1037BD4680BD80B582B0CA
:1005E00000AF786001217868FFF75EFF00BF083731
:1005F000BD4680BD80B582B000AF78600B46FB7011
:100600007B6803F11802FB7803F00103DBB21946A3
:100610001046FFF701FE7B6803F12002FB785B08C0
:10062000DBB203F00103DBB219461046FFF7F4FD1D
:100630007B6803F12802FB789B08DBB203F001031F
:10064000DBB219461046FFF7E7FD7B6803F1300285
:10065000FB78DB08DBB203F00103DBB2194610467E
:10066000FFF7DAFD00BF0837BD4680BD80B584B016
:1006700000AF78607B68103301211846FFF7CCFD8E
:100680000023FB7302E0FB7B0133FB73FB7B092B35
:10069000F9D97B68103300211846FFF7BDFD002310
:1006A000BB8102E0BB890133BB81BB89B3F5FA6F23
:1006B000F8D300BF00BF1037BD4680BD80B582B003
:1006C00000AF78600B46FB701346BB70BB78013BF4
:1006D000BB70FB78013B032B2AD801A252F823F010
:1006E000F1060008010700081107000821070008AB
:1006F000BB78803BDBB219467868FFF7D5FE17E080
:10070000BB78403BDBB219467868FFF7CDFE0FE0BF
:10071000BB786C3BDBB219467868FFF7C5FE07E093
:10072000BB782C3BDBB219467868FFF7BDFE00BFF3
:1007300000BF0837BD4680BD80B582B000AF78608D
:100740007B68002B16D07B681B78184600F052F8A7
:100750007B681B78022B09D17B685B78184600F018
:10076000D9F87B689B78184600F05AF9786800F051
:100770006BF900E000BF0837BD4680BD80B483B090
:1007800000AF03460A46FB711346BB71FB79022B8F
:100790001CD0022B25DC002B02D0012B0BD020E03B
:1007A000134B5B69BA79012101FA02F21146104A32
:1007B0000B43536116E00E4BDB69BA79012101FA54
:1007C00002F211460A4A0B43D3610BE0084B9B69C6
:1007D000BA79012101FA02F21146054A0B439361ED
:1007E00000E000BF00BF0C37BD4680BC704700BFB3
:1007F0000010024080B483B000AF0346FB71444B4D
:100800005B68434A23F001035360414B5B68404AF5
:1008100023F002035360FB79022B40D0022B58DCFB
:10082000002B02D0012B1AD053E0394B1B68384AF9
:1008300043F00103136000BF354B1B6803F0020354
:10084000002BF9D0324B5B68314A23F0010353602F
:100850002F4B5B682E4A23F00203536053E02C4B6E
:100860001B682B4A43F480331360294B1B68284ACA
:1008700023F48023136000BF254B1B6803F400336F
:10088000002BF9D0224B5B68214A43F001035360EF
:100890001F4B5B681E4A23F00203536033E01C4B7E
:1008A0001B681B4A43F08073136000BF184B1B6822
:1008B00003F00073002BF9D0154B5B68144A23F04A
:1008C00001035360124B5B68114A43F0020353600B
:1008D00019E00F4B1B680E4A43F00103136000BF81
:1008E0000B4B1B6803F00203002BF9D0084B5B682D
:1008F000074A23F001035360054B5B68044A23F069
:100900000203536000BF00BF0C37BD4680BC704778
:100910000010024080B483B000AF0346FB713F4B30
:100920005B683E4A23F4003353603C4B5B683B4AB0
:1009300023F480335360FB79022B48D0022B5ADC1E
:10094000002B02D0012B21D055E0344B1B68334AD9
:1009500043F48033136000BF304B1B6803F4003353
:10096000002BF9D02D4B5B682C4A23F400335360E5
:100970002A4B5B68294A43F48033536000BF274BFE
:100980001B6803F40033002BF9D042E0234B1B68B3
:10099000224A43F48033136000BF204B1B6803F4EA
:1009A0000033002BF9D01D4B5B681C4A43F4003325
:1009B00053601A4B5B68194A43F48033536000BF9D
:1009C000164B1B6803F40033002BF9D021E0134BC6
:1009D0001B68124A43F00103136000BF0F4B1B68F2
:1009E00003F00203002BF9D00C4B5B680B4A23F495
:1009F000803353600DE0094B1B68084A43F0010344
:100A0000136000BF054B1B6803F00203002BF9D0F5
:100A100000BF00BF0C37BD4680BC704700100240CD
:100A200080B483B000AF0346FB71064B5B68FA7974
:100A300092041146034A0B43536000BF0C37BD4676
:100A400080BC70470010024080B483B000AF786073
:100A50007B68002B1BD0104B5B687A68D278120140
:100A600011460D4A0B4353600B4B5B687A68127951
:100A700012021146084A0B435360074B5B687A68C1
:100A80005279D2021146044A0B43536000E000BF82
:100A90000C37BD4680BC70470010024080B500AFE7
:100AA000104A0021012001F001F803460E4A1360AC
:100AB0000E4A0121052001F053F903460C4A136048
:100AC0000C4A00210C4800F047FF03460B4A136014
:100AD0000B4A00210B4800F03FFF03460A4A13600F
:100AE00000BF80BDEC4E0008D0000020D44E0008AE
:100AF000CC0000208C4E00080D0B0008C400002024
:100B0000B04E0008550B0008C800002080B584B026
:100B100000AF78600123FB600023FB720A4B1B6867
:100B200007F10B014FF0FF32184601F04FFEF8605D
:100B3000FB7A0E2201210548FFF70CFD044B1B68D0
:100B4000184601F0B5F8E9E7CC000020400000208D
:100B5000D000002080B584B000AF78600123FB6036
:100B60001B4BFF221A701B48FFF7DAFB03461A469D
:100B7000174B1A70164B1B78FF2BF1D01648FFF756
:100B80002DFD134B1B78302B03D9114B1B78392BC0
:100B900006D9124B012201210F48FFF7FBFC05E0AB
:100BA0000F4B012201210C48FFF7F4FC0D4B186894
:100BB00001234FF0FF32064901F0E4FBF8600A4BD5
:100BC0001B684FF0FF31184601F00CF8C8E700BF72
:100BD0007E0000200000002040000020444E00085D
:100BE000544E0008CC000020D000002080B483B018
:100BF00000AF074B064A9B699361054B9B6903F065
:100C000020037B607B6800BF0C37BD4680BC70470B
:100C10000010024080B500AF00F0F0F81248FFF776
:100C20008BFD02210220FFF7A9FD03210220FFF71F
:100C3000A5FD0E48FFF7CCFB0D48FFF72CFB0D4838
:100C4000FFF786FA0C48FFF783FA0C48FFF780FAA3
:100C500000F016F8FFF7CAFF00F018FEFFF71EFFBE
:100C600000F046FEFEE700BF7800002040000020B4
:100C7000000000208000002088000020900000205C
:100C800080B590B000AF07F1180328220021184664
:100C900004F07CF83B1D00221A605A609A60DA600A
:100CA0001A610123BB614FF48033FB6100233B6277
:100CB0000123BB6202237B634FF48033BB630023B9
:100CC000FB6307F11803184600F002FA0346002BF5
:100CD00001D000F019F80F237B600223BB60802352
:100CE000FB604FF4A0633B6100237B613B1D00214F
:100CF000184600F06FFC0346002B01D000F004F80A
:100D000000BF4037BD4680BD80B400AF72B600BFA3
:100D1000FEE7000080B582B000AF104B9B690F4A20
:100D200043F0020393610D4B9B6903F001037B6069
:100D30007B680A4B094ADB69D361084BDB6903F026
:100D400080533B603B6800220F216FF0010000F0F0
:100D500096F900BF0837BD4680BD00BF00100240B5
:100D600080B400AFFEE780B400AFFEE780B400AF10
:100D7000FEE780B400AFFEE780B400AFFEE780B4CA
:100D800000AF00BFBD4680BC704780B500AF00F02B
:100D90007BF802F03BFF0346012B01D003F09CFDE2
:100DA00000BF80BD80B400AF00BFBD4680BC7047AF
:100DB000FFF7F8FF0B480C490C4A002302E0D45817
:100DC000C4500433C4188C42F9D3094A094C002397
:100DD00001E013600432A242FBD303F0DFFFFFF710
:100DE00019FF704700000020A8000020284F0008CD
:100DF000A8000020201A0020FEE7000080B500AF08
:100E0000084B1B68074A43F010031360032000F0EF
:100E10002BF90F2000F008F8FFF77CFF002318469D
:100E200080BD00BF0020024080B582B000AF786076
:100E3000124B1A68124B1B7819464FF47A73B3FBA6
:100E4000F1F3B2FBF3F3184600F035F90346002B3B
:100E500001D001230EE07B680F2B0AD800227968AD
:100E60004FF0FF3000F00BF9064A7B681360002357
:100E700000E0012318460837BD4680BD98000020D9
:100E8000A00000209C00002080B400AF054B1B7820
:100E90001A46054B1B681344034A136000BFBD4646
:100EA00080BC7047A0000020D400002080B400AFB8
:100EB000024B1B681846BD4680BC7047D40000201A
:100EC00080B584B000AF7860FFF7F0FFB8607B6852
:100ED000FB60FB68B3F1FF3F05D00A4B1B781A4655
:100EE000FB681344FB6000BFFFF7E0FF0246BB68EE
:100EF000D31AFA689A42F7D800BF00BF1037BD4630
:100F000080BD00BFA000002080B485B000AF786035
:100F10007B6803F00703FB600C4BDB68BB60BA68BF
:100F20004FF6FF031340BB60FB681A02BB68134314
:100F300043F0BF6343F40033BB60044ABB68D36033
:100F400000BF1437BD4680BC704700BF00ED00E015
:100F500080B400AF044BDB681B0A03F0070318469C
:100F6000BD4680BC704700BF00ED00E080B483B098
:100F700000AF03463960FB7197F90730002B0ADB9D
:100F80003B68DAB20C4997F907301201D2B20B4430
:100F900083F800230AE03B68DAB20849FB7903F0E2
:100FA0000F03043B1201D2B20B441A7600BF0C3778
:100FB000BD4680BC704700BF00E100E000ED00E0EE
:100FC00080B489B000AFF860B9607A60FB6803F064
:100FD0000703FB61FB69C3F10703042B28BF04234C
:100FE000BB61FB690433062B02D9FB69033B00E0BC
:100FF00000237B614FF0FF32BB6902FA03F3DA434F
:10100000BB681A407B699A404FF0FF317B6901FA57
:1010100003F3D9437B680B40134318462437BD467E
:1010200080BC704780B582B000AF78607B68013BC0
:10103000B3F1807F01D301230FE00A4A7B68013BB3
:1010400053600F214FF0FF30FFF790FF054B002258
:101050009A60044B07221A60002318460837BD46E1
:1010600080BD00BF10E000E080B582B000AF7860C6
:101070007868FFF749FF00BF0837BD4680BD80B5DF
:1010800086B000AF0346B9607A60FB7300237B61D2
:10109000FFF75EFF78617A68B9687869FFF790FFBB
:1010A000024697F90F3011461846FFF75FFF00BF61
:1010B0001837BD4680BD80B582B000AF78607868D3
:1010C000FFF7B0FF034618460837BD4680BD000055
:1010D00080B586B000AF78607B68002B01D101231A
:1010E00072E27B681B6803F00103002B00F087802D
:1010F000924B5B6803F00C03042B0CD08F4B5B68A6
:1011000003F00C03082B12D18C4B5B6803F4803383
:10111000B3F5803F0BD1894B1B6803F40033002BE0
:101120006CD07B685B68002B68D101234CE27B6844
:101130005B68B3F5803F06D1804B1B687F4A43F460
:10114000803313602EE07B685B68002B0CD17B4BF7
:101150001B687A4A23F480331360784B1B68774A04
:1011600023F4802313601DE07B685B68B3F5A02F38
:101170000CD1724B1B68714A43F4802313606F4B90
:101180001B686E4A43F4803313600BE06B4B1B68A3
:101190006A4A23F480331360684B1B68674A23F460
:1011A000802313607B685B68002B13D0FFF77EFE03
:1011B000386108E0FFF77AFE02463B69D31A642BD8
:1011C00001D9032300E25D4B1B6803F40033002BBD
:1011D000F0D014E0FFF76AFE386108E0FFF766FE22
:1011E00002463B69D31A642B01D90323ECE1534B2C
:1011F0001B6803F40033002BF0D100E000BF7B68D4
:101200001B6803F00203002B63D04C4B5B6803F0B8
:101210000C03002B0BD0494B5B6803F00C03082B2D
:101220001CD1464B5B6803F48033002B16D1434B33
:101230001B6803F00203002B05D07B681B69012BA0
:1012400001D00123C0E13D4B1B6823F0F8027B680D
:101250005B69DB00394913430B603AE07B681B692B
:10126000002B20D0364B01221A60FFF71FFE386199
:1012700008E0FFF71BFE02463B69D31A022B01D997
:101280000323A1E12D4B1B6803F00203002BF0D0D8
:101290002A4B1B6823F0F8027B685B69DB00274957
:1012A00013430B6015E0264B00221A60FFF7FEFD8A
:1012B000386108E0FFF7FAFD02463B69D31A022BBA
:1012C00001D9032380E11D4B1B6803F00203002BAF
:1012D000F0D17B681B6803F00803002B3AD07B68D1
:1012E0009B69002B19D0174B01221A60FFF7DEFD16
:1012F000386108E0FFF7DAFD02463B69D31A022B9A
:1013000001D9032360E10D4B5B6A03F00203002B5C
:10131000F0D0012000F09CFA1CE00A4B00221A6079
:10132000FFF7C4FD38610FE0FFF7C0FD02463B69DF
:10133000D31A022B08D9032346E100BF0010024054
:101340000000424280044242924B5B6A03F0020377
:10135000002BE9D17B681B6803F00403002B00F02D
:10136000A6800023FB758B4BDB6903F08053002BB9
:101370000DD1884BDB69874A43F08053D361854B9D
:10138000DB6903F08053BB60BB680123FB75824BB4
:101390001B6803F48073002B18D17F4B1B687E4AB7
:1013A00043F480731360FFF781FD386108E0FFF7B5
:1013B0007DFD02463B69D31A642B01D9032303E167
:1013C000754B1B6803F48073002BF0D07B68DB68DF
:1013D000012B06D16F4B1B6A6E4A43F00103136267
:1013E0002DE07B68DB68002B0CD16A4B1B6A694AD5
:1013F00023F001031362674B1B6A664A23F0040360
:1014000013621CE07B68DB68052B0CD1614B1B6A07
:10141000604A43F0040313625E4B1B6A5D4A43F06B
:10142000010313620BE05B4B1B6A5A4A23F0010372
:101430001362584B1B6A574A23F0040313627B68FC
:10144000DB68002B15D0FFF731FD38610AE0FFF7AC
:101450002DFD02463B69D31A41F28832934201D9ED
:101460000323B1E04B4B1B6A03F00203002BEED0C9
:1014700014E0FFF71BFD38610AE0FFF717FD024695
:101480003B69D31A41F28832934201D903239BE08E
:10149000404B1B6A03F00203002BEED1FB7D012BB6
:1014A00005D13C4BDB693B4A23F08053D3617B6819
:1014B000DB69002B00F08780364B5B6803F00C0380
:1014C000082B61D07B68DB69022B46D1334B0022AD
:1014D0001A60FFF7EBFC386108E0FFF7E7FC024613
:1014E0003B69D31A022B01D903236DE0294B1B68FA
:1014F00003F00073002BF0D17B681B6AB3F5803FCB
:1015000008D1244B5B6823F400327B689B68214937
:1015100013434B601F4B5B6823F474127B68196A9A
:101520007B685B6A0B431B4913434B601B4B0122D7
:101530001A60FFF7BBFC386108E0FFF7B7FC024612
:101540003B69D31A022B01D903233DE0114B1B68E1
:1015500003F00073002BF0D035E0104B00221A602E
:10156000FFF7A4FC386108E0FFF7A0FC02463B69E6
:10157000D31A022B01D9032326E0064B1B6803F084
:101580000073002BF0D11EE07B68DB69012B07D1D3
:10159000012319E000100240007000406000424248
:1015A0000B4B5B68FB60FB6803F480327B681B6A53
:1015B0009A4206D1FB6803F470127B685B6A9A4218
:1015C00001D0012300E0002318461837BD4680BD36
:1015D0000010024080B584B000AF786039607B684D
:1015E000002B01D10123D0E06A4B1B6803F00703F5
:1015F0003A689A4210D9674B1B6823F00702654985
:101600003B6813430B60634B1B6803F007033A68A6
:101610009A4201D00123B8E07B681B6803F0020303
:10162000002B20D07B681B6803F00403002B05D03F
:10163000594B5B68584A43F4E06353607B681B680E
:1016400003F00803002B05D0534B5B68524A43F468
:1016500060535360504B5B6823F0F0027B689B68DB
:101660004D4913434B607B681B6803F00103002B5B
:1016700040D07B685B68012B07D1474B1B6803F4A4
:101680000033002B15D101237FE07B685B68022BC0
:1016900007D1414B1B6803F00073002B09D10123D4
:1016A00073E03D4B1B6803F00203002B01D10123C3
:1016B0006BE0394B5B6823F003027B685B6836495B
:1016C00013434B60FFF7F2FBF8600AE0FFF7EEFB15
:1016D0000246FB68D31A41F28832934201D90323B0
:1016E00053E02D4B5B6803F00C027B685B689B004A
:1016F0009A42EBD1274B1B6803F007033A689A42E2
:1017000010D2244B1B6823F0070222493B68134385
:101710000B60204B1B6803F007033A689A4201D024
:10172000012332E07B681B6803F00403002B08D020
:10173000194B5B6823F4E0627B68DB68164913434E
:101740004B607B681B6803F00803002B09D0124B29
:101750005B6823F460527B681B69DB000E4913430E
:101760004B6000F021F802460B4B5B681B0903F04D
:101770000F030A49CB5C22FA03F3094A1360094BB1
:101780001B681846FFF750FB002318461037BD466C
:1017900080BD00BF0020024000100240FC4E000847
:1017A000980000209C00002080B487B000AF002388
:1017B000FB600023BB6000237B6100237B60002370
:1017C0003B611E4B5B68FB60FB6803F00C03042B62
:1017D00002D0082B03D027E0194B3B6127E0FB68C0
:1017E0009B0C03F00F03174AD35C7B60FB6803F488
:1017F0008033002B10D0114B5B685B0C03F00103AE
:10180000114AD35CBB607B680D4A03FB02F2BB68E4
:10181000B2FBF3F37B6104E07B680C4A02FB03F349
:101820007B617B693B6102E0054B3B6100BF3B692B
:1018300018461C37BD4680BC704700BF00100240F0
:1018400000127A000C4F00081C4F000800093D00F0
:1018500080B485B000AF78600A4B1B680A4AA2FBCF
:1018600003235B0A7A6802FB03F3FB6000BFFB689B
:101870005A1EFA60002BF9D100BF00BF1437BD46D5
:1018800080BC704798000020D34D621080B485B0B2
:1018900000AFEFF30583BB60BB68002B0FD1EFF304
:1018A00010837B607B68002B09D1104B1B68022BD7
:1018B00009D1EFF311833B603B68002B03D06FF03D
:1018C0000503FB600CE0094B1B68002B05D1074B9F
:1018D00001221A600023FB6002E04FF0FF33FB603F
:1018E000FB6818461437BD4680BC7047D8000020FE
:1018F00080B584B000AFEFF30583BB60BB68002BFD
:101900000FD1EFF310837B607B68002B09D1114B63
:101910001B68022B09D1EFF311833B603B68002B5E
:1019200003D06FF00503FB600EE00A4B1B68012B30
:1019300007D1084B02221A6001F01CFD0023FB6056
:1019400002E04FF0FF33FB60FB6818461037BD46DE
:1019500080BD00BFD800002080B592B004AFF86011
:10196000B9607A6000237B61EFF305837B627B6A59
:10197000002B40F09480EFF310833B623B6A002B16
:1019800040F08D80484B1B68022B06D1EFF311838A
:10199000FB61FB69002B40F08280FB68002B7ED04E
:1019A00080233B631823FB620023FB7607F11B03B4
:1019B0007B634FF0FF33BB627B68002B45D07B68B5
:1019C0001B68002B02D07B681B687B637B689B696C
:1019D000002B02D07B689B69FB62FB6A002B08D05E
:1019E000FB6A382B05D87B685B6803F00103002B8A
:1019F00001D0002354E07B685B69002B03D07B6837
:101A00005B699B083B637B689B68002B0ED07B68FF
:101A1000DB685B2B0AD97B681B69002B06D07B68CF
:101A20005B69002B02D00123BB6210E07B689B68DE
:101A3000002B0CD17B68DB68002B08D17B681B690D
:101A4000002B04D10023BB6201E00023BB62BB6A10
:101A5000012B10D17B681B697A689268029201930E
:101A6000FB6A0093BB683A6B796BF86801F0EAFA9D
:101A700003467B6113E0BB6A002B10D13B6B9AB22B
:101A800007F114030193FB6A0093BB68796BF86854
:101A900001F034FB0346012B01D000237B617B69FD
:101AA00018463837BD4680BDD800002080B58CB0C0
:101AB00002AFF860B9607A6000237B62EFF30583C0
:101AC000BB61BB69002B40F08680EFF310837B6124
:101AD0007B69002B7FD1424B1B68022B05D1EFF3B2
:101AE00011833B613B69002B75D1FB68002B72D0E1
:101AF000BA68FB689A426ED84FF0FF333B627B684E
:101B0000002B15D07B689B68002B06D07B68DB68B8
:101B10004F2B02D901233B620CE07B689B68002BB2
:101B200008D17B68DB68002B04D100233B6201E015
:101B300000233B623B6AB3F1FF3F4CD0FB68012BB3
:101B400028D13B6A012B0AD17B689B680322009253
:101B500000220021012000F0D3FA786205E0032280
:101B60000021012000F043FB78627B6A002B22D029
:101B7000BB68002B1FD0002300220021786A00F0F0
:101B800001FC0346012B16D0786A01F08BF8002384
:101B90007B6210E03B6A012B08D17B689B681A4688
:101BA000B968F86800F084FB786204E0B968F86806
:101BB00000F0B5FB78627B6A002B0CD07B68002BB1
:101BC00003D07B681B68FB6101E00023FB61F969BE
:101BD000786A01F0B1F97B6A18462837BD4680BDA6
:101BE000D800002080B588B000AF786039607B688D
:101BF000BB610023FB61BB69002B03D16FF00303C2
:101C0000FB614BE0EFF305837B617B69002B0FD118
:101C1000EFF310833B613B69002B09D1224B1B681A
:101C2000022B28D1EFF31183FB60FB68002B22D03D
:101C30003B68002B03D06FF00303FB612DE0002312
:101C4000BB6007F108031A460021B86900F0AAFF3B
:101C50000346012B03D06FF00203FB611DE0BB685C
:101C6000002B1AD0114B4FF080521A60BFF34F8FE8
:101C7000BFF36F8F11E03968B86900F087FE034643
:101C8000012B0BD03B68002B03D06FF00103FB61ED
:101C900004E06FF00203FB6100E000BFFB6918463F
:101CA0002037BD4680BD00BFD800002004ED00E015
:101CB00080B588B000AF78607B68BB610023FB61B2
:101CC000BB69002B03D16FF00303FB613EE0EFF330
:101CD00005837B617B69002B0FD1EFF310833B61A0
:101CE0003B69002B09D11C4B1B68022B20D1EFF361
:101CF0001183FB60FB68002B1AD00023BB6007F147
:101D000008031946B86900F0D3FC0346012B03D041
:101D10006FF00203FB6118E0BB68002B15D00F4B7E
:101D20004FF080521A60BFF34F8FBFF36F8F0CE0FC
:101D3000002300220021B86900F024FB0346012B98
:101D400004D06FF00203FB6100E000BFFB6918469E
:101D50002037BD4680BD00BFD800002004ED00E064
:101D600080B58CB002AFF860B9607A6000237B6206
:101D7000EFF30583BB61BB69002B6FD1EFF31083D9
:101D80007B617B69002B69D1374B1B68022B05D126
:101D9000EFF311833B613B69002B5FD1FB68002BA4
:101DA0005CD0BB68002B59D04FF0FF333B627B689F
:101DB000002B29D07B689B68002B12D07B68DB68E6
:101DC0004F2B0ED97B681B69002B0AD07B685A69A0
:101DD000FB68B96801FB03F39A4202D301233B621B
:101DE00014E07B689B68002B10D17B68DB68002BBC
:101DF0000CD17B681B69002B08D17B685B69002BC9
:101E000004D100233B6201E000233B623B6A012BCB
:101E10000BD17B681A697B689B6800210091B968C7
:101E2000F86800F06DF9786208E03B6A002B05D194
:101E30000022B968F86800F0DAF978627B6A002B52
:101E40000CD07B68002B03D07B681B68FB6101E032
:101E50000023FB61F969786A01F06EF87B6A184625
:101E60002837BD4680BD00BFD800002080B485B0B3
:101E700000AFF860B9607A60FB68064A1A60BB6818
:101E8000054A1A607B6880221A6000BF1437BD467D
:101E900080BC7047DC0000203801002080B485B091
:101EA00000AFF860B9607A60FB68074A1A60BB68E7
:101EB000064A1A607B684FF480721A6000BF1437BC
:101EC000BD4680BC704700BF38030020940300204B
:101ED00080B483B000AF78607B6803F108027B6850
:101EE0005A607B684FF0FF329A607B6803F108020A
:101EF0007B68DA607B6803F108027B681A617B68A3
:101F000000221A6000BF0C37BD4680BC704780B409
:101F100083B000AF78607B6800221A6100BF0C3785
:101F2000BD4680BC704780B485B000AF7860396032
:101F30007B685B68FB603B68FA685A60FB689A687C
:101F40003B689A60FB689B683A685A60FB683A682D
:101F50009A603B687A681A617B681B685A1C7B68C8
:101F60001A6000BF1437BD4680BC704780B485B08E
:101F700000AF786039603B681B68BB60BB68B3F139
:101F8000FF3F03D17B681B69FB600CE07B68083373
:101F9000FB6002E0FB685B68FB60FB685B681B68DA
:101FA000BA689A42F6D2FB685A683B685A603B6846
:101FB0005B683A689A603B68FA689A60FB683A68BE
:101FC0005A603B687A681A617B681B685A1C7B6898
:101FD0001A6000BF1437BD4680BC704780B485B01E
:101FE00000AF78607B681B69FB607B685B687A6820
:101FF00092689A607B689B687A6852685A60FB684E
:102000005B687A689A4203D17B689A68FB685A6079
:102010007B6800221A61FB681B685A1EFB681A6005
:10202000FB681B6818461437BD4680BC704700002B
:1020300080B584B000AF786039607B68FB60FB6876
:10204000002B0AD14FF0500383F31188BFF36F8F39
:10205000BFF34F8FBB6000BFFEE702F0BFFBFB6822
:102060001A68FB68DB6BF968096C01FB03F31A441F
:10207000FB685A60FB6800229A63FB681A68FB6879
:102080009A60FB681A68FB68DB6B013BF968096CB6
:1020900001FB03F31A44FB68DA60FB68FF2283F854
:1020A0004420FB68FF2283F845203B68002B14D1B5
:1020B000FB681B69002B1AD0FB681033184601F02F
:1020C000E3FB0346002B12D00C4B4FF080521A60FA
:1020D000BFF34F8FBFF36F8F09E0FB6810331846D3
:1020E000FFF7F6FEFB6824331846FFF7F1FE02F017
:1020F000A5FB012318461037BD4680BD04ED00E066
:1021000080B58EB002AFF860B9607A603B60FB6862
:10211000002B0AD14FF0500383F31188BFF36F8F68
:10212000BFF34F8FBB6200BFFEE73B68002B0AD1B5
:102130004FF0500383F31188BFF36F8FBFF34F8FBE
:102140007B6200BFFEE77B68002B02D0BB68002BE0
:1021500001D0012300E00023002B0AD14FF05003EF
:1021600083F31188BFF36F8FBFF34F8F3B6200BFC4
:10217000FEE77B68002B02D1BB68002B01D1012355
:1021800000E00023002B0AD14FF0500383F31188A5
:10219000BFF36F8FBFF34F8FFB6100BFFEE750238C
:1021A0007B617B69502B0AD04FF0500383F3118879
:1021B000BFF36F8FBFF34F8FBB6100BFFEE73B687C
:1021C000FB62FB6A002B0DD0FB6A012283F84620DC
:1021D00097F83820FB6A009313467A68B968F86864
:1021E00000F043F8FB6A18463037BD4680BD80B525
:1021F0008AB002AFF860B9601346FB71FB68002B30
:102200000AD14FF0500383F31188BFF36F8FBFF3F0
:102210004F8F3B6100BFFEE7BB68002B02D100235C
:10222000FB6104E0FB68BA6802FB03F3FB61FB6936
:102230005033184602F0D2FBB861BB69002B0FD0B7
:10224000BB6950337B61BB69002283F84620FA7971
:10225000BB69009313467A69B968F86800F005F81D
:10226000BB6918462037BD4680BD80B584B000AF3D
:10227000F860B9607A60FB70BB68002B03D1BB6962
:10228000BA691A6002E0BB697A681A60BB69FA68C9
:10229000DA63BB69BA681A640121B869FFF7C8FE3E
:1022A000BB69FA7883F84C2000BF1037BD4680BD6B
:1022B00080B58AB002AFF860B9607A60FB68002B25
:1022C0000AD14FF0500383F31188BFF36F8FBFF330
:1022D0004F8FBB6100BFFEE7BA68FB689A420AD91C
:1022E0004FF0500383F31188BFF36F8FBFF34F8F0D
:1022F0007B6100BFFEE7022300937B680022002180
:10230000F868FFF7FDFEF861FB69002B02D0FB695E
:10231000BA689A63FB6918462037BD4680BD80B510
:1023200086B000AF786039607B68002B0AD14FF02F
:10233000500383F31188BFF36F8FBFF34F8F3B615F
:1023400000BFFEE73A687B689A420AD94FF0500313
:1023500083F31188BFF36F8FBFF34F8FFB6000BF14
:10236000FEE7022200217868FFF741FF78617B6970
:10237000002B02D07B693A689A637B69184618374C
:10238000BD4680BD80B58EB000AFF860B9607A60A0
:102390003B6000237B63FB683B633B6B002B0AD1F4
:1023A0004FF0500383F31188BFF36F8FBFF34F8F4C
:1023B000BB6200BFFEE7BB68002B03D13B6B1B6C0D
:1023C000002B01D1012300E00023002B0AD14FF0A4
:1023D000500383F31188BFF36F8FBFF34F8F7B627E
:1023E00000BFFEE73B68022B03D13B6BDB6B012B8D
:1023F00001D1012300E00023002B0AD14FF050034C
:1024000083F31188BFF36F8FBFF34F8F3B6200BF21
:10241000FEE701F0FBFB0346002B02D17B68002B9B
:1024200001D1012300E00023002B0AD14FF050031B
:1024300083F31188BFF36F8FBFF34F8FFB6100BF32
:10244000FEE702F0CBF93B6B9A6B3B6BDB6B9A427E
:1024500002D33B68022B29D13A68B968386B00F087
:102460005BFCF8623B6B5B6A002B10D03B6B243348
:10247000184601F009FA0346002B13D03F4B4FF0EA
:1024800080521A60BFF34F8FBFF36F8F0AE0FB6A71
:10249000002B07D0394B4FF080521A60BFF34F8F9B
:1024A000BFF36F8F02F0CAF9012363E07B68002B52
:1024B00003D102F0C3F900235CE07B6B002B06D153
:1024C00007F11403184601F043FA01237B6302F07D
:1024D000B5F900F0B5FF02F081F93B6B93F8443099
:1024E0005BB2B3F1FF3F03D13B6B002283F8442082
:1024F0003B6B93F845305BB2B3F1FF3F03D13B6BCD
:10250000002283F8452002F099F93A1D07F11403DF
:102510001146184601F032FA0346002B24D1386BDD
:1025200000F0F2FC0346002B18D03B6B10337A68A6
:102530001146184601F058F9386B00F07DFC00F0A8
:102540008DFF0346002B7FF47CAF0C4B4FF0805285
:102550001A60BFF34F8FBFF36F8F72E7386B00F0D5
:102560006BFC00F07BFF6CE7386B00F065FC00F063
:1025700075FF002318463837BD4680BD04ED00E0E6
:1025800080B58EB000AFF860B9607A603B60FB68E0
:102590003B633B6B002B0AD14FF0500383F3118850
:1025A000BFF36F8FBFF34F8F7B6200BFFEE7BB6847
:1025B000002B03D13B6B1B6C002B01D1012300E0EE
:1025C0000023002B0AD14FF0500383F31188BFF38F
:1025D0006F8FBFF34F8F3B6200BFFEE73B68022B5C
:1025E00003D13B6BDB6B012B01D1012300E0002306
:1025F000002B0AD14FF0500383F31188BFF36F8F84
:10260000BFF34F8FFB6100BFFEE702F0A9F9EFF3C4
:1026100011824FF0500383F31188BFF36F8FBFF324
:102620004F8FBA617B61BB69FB623B6B9A6B3B6B03
:10263000DB6B9A4202D33B68022B2CD13B6B93F8A5
:10264000453087F82B303A68B968386B00F064FB86
:1026500097F92B30B3F1FF3F12D13B6B5B6A002B34
:1026600016D03B6B2433184601F00EF90346002BBD
:102670000ED07B68002B0BD07B6801221A6007E02C
:1026800097F82B300133DBB25AB23B6B83F845200D
:1026900001237B6301E000237B63FB6A3B613B69B1
:1026A00083F3118800BF7B6B18463837BD4680BD69
:1026B00080B58EB000AF786039607B683B633B6B60
:1026C000002B0AD14FF0500383F31188BFF36F8FB3
:1026D000BFF34F8F3B6200BFFEE73B6B1B6C002BD1
:1026E0000AD04FF0500383F31188BFF36F8FBFF30D
:1026F0004F8FFB6100BFFEE73B6B1B68002B03D1D4
:102700003B6B5B68002B01D1012300E00023002B11
:102710000AD14FF0500383F31188BFF36F8FBFF3DB
:102720004F8FBB6100BFFEE702F01AF9EFF3118291
:102730004FF0500383F31188BFF36F8FBFF34F8FB8
:102740007A613B617B69FB623B6B9B6BBB623B6B62
:10275000DB6BBA6A9A422BD23B6B93F8453087F811
:102760002730BB6A5A1C3B6B9A6397F92730B3F149
:10277000FF3F12D13B6B5B6A002B16D03B6B2433BF
:10278000184601F081F80346002B0ED03B68002B61
:102790000BD03B6801221A6007E097F8273001331D
:1027A000DBB25AB23B6B83F8452001237B6301E027
:1027B00000237B63FB6AFB60FB6883F3118800BF27
:1027C0007B6B18463837BD4680BD000080B58CB0A5
:1027D00000AFF860B9607A600023FB62FB68BB62FF
:1027E000BB6A002B0AD14FF0500383F31188BFF36B
:1027F0006F8FBFF34F8F3B6200BFFEE7BB68002BBC
:1028000003D1BB6A1B6C002B01D1012300E0002324
:10281000002B0AD14FF0500383F31188BFF36F8F61
:10282000BFF34F8FFB6100BFFEE701F0EFF90346F6
:10283000002B02D17B68002B01D1012300E0002393
:10284000002B0AD14FF0500383F31188BFF36F8F31
:10285000BFF34F8FBB6100BFFEE701F0BFFFBB6A54
:102860009B6B7B627B6A002B1FD0B968B86A00F053
:10287000BDFA7B6A5A1EBB6A9A63BB6A1B69002B4E
:102880000FD0BB6A1033184600F0FEFF0346002B42
:1028900007D03D4B4FF080521A60BFF34F8FBFF30C
:1028A0006F8F01F0CBFF012369E07B68002B03D120
:1028B00001F0C4FF002362E0FB6A002B06D107F1A0
:1028C0001003184601F044F80123FB6201F0B6FF43
:1028D00000F0B6FD01F082FFBB6A93F844305BB2B2
:1028E000B3F1FF3F03D1BB6A002283F84420BB6AE7
:1028F00093F845305BB2B3F1FF3F03D1BB6A0022CE
:1029000083F8452001F09AFF3A1D07F110031146A4
:10291000184601F033F80346002B23D1B86A00F0C3
:10292000DDFA0346002B17D0BB6A24337A681146C0
:10293000184600F059FFB86A00F07EFA00F08EFDEC
:102940000346002B89D1104B4FF080521A60BFF321
:102950004F8FBFF36F8F80E7B86A00F06DFA00F019
:102960007DFD7AE7B86A00F067FA00F077FDB86A93
:1029700000F0B4FA0346002B3FF46FAF0023184673
:102980003037BD4680BD00BF04ED00E080B58EB09D
:1029900000AF7860396000237B637B68FB620023B3
:1029A0003B63FB6A002B0AD14FF0500383F311887D
:1029B000BFF36F8FBFF34F8F3B6200BFFEE7FB6A31
:1029C0001B6C002B0AD04FF0500383F31188BFF328
:1029D0006F8FBFF34F8FFB6100BFFEE701F016F969
:1029E0000346002B02D13B68002B01D1012300E0FC
:1029F0000023002B0AD14FF0500383F31188BFF35B
:102A00006F8FBFF34F8FBB6100BFFEE701F0E6FEA3
:102A1000FB6A9B6BBB62BB6A002B24D0BB6A5A1E4D
:102A2000FB6A9A63FB6A1B68002B04D101F06EFA03
:102A30000246FB6A5A60FB6A1B69002B0FD0FB6AD7
:102A40001033184600F020FF0346002B07D0544BEC
:102A50004FF080521A60BFF34F8FBFF36F8F01F0BA
:102A6000EDFE012397E03B68002B11D13B6B002B5F
:102A70000AD04FF0500383F31188BFF36F8FBFF379
:102A80004F8F7B6100BFFEE701F0D8FE002382E09C
:102A90007B6B002B06D107F10C03184600F058FFA2
:102AA00001237B6301F0CAFE00F0CAFC01F096FE30
:102AB000FB6A93F844305BB2B3F1FF3F03D1FB6A8A
:102AC000002283F84420FB6A93F845305BB2B3F1EF
:102AD000FF3F03D1FB6A002283F8452001F0AEFEE0
:102AE0003A4607F10C031146184600F047FF03462B
:102AF000002B32D1F86A00F0F1F90346002B26D002
:102B0000FB6A1B68002B09D101F068FEFB6A5B6859
:102B1000184601F099F8386301F090FEFB6A2433FF
:102B20003A681146184600F05FFEF86A00F084F932
:102B300000F094FC0346002B7FF468AF184B4FF075
:102B400080521A60BFF34F8FBFF36F8F5EE7F86A52
:102B500000F072F900F082FC58E7F86A00F06CF9B6
:102B600000F07CFCF86A00F0B9F90346002B3FF452
:102B70004DAF3B6B002B0DD001F030FEF86A00F03A
:102B8000B4F87862FB6A5B68796A184601F038F934
:102B900001F054FE002318463837BD4680BD00BF03
:102BA00004ED00E080B58EB000AFF860B9607A60E7
:102BB000FB683B633B6B002B0AD14FF0500383F360
:102BC0001188BFF36F8FBFF34F8F3B6200BFFEE7EB
:102BD000BB68002B03D13B6B1B6C002B01D1012385
:102BE00000E00023002B0AD14FF0500383F311883B
:102BF000BFF36F8FBFF34F8FFB6100BFFEE701F0A4
:102C0000AFFEEFF311824FF0500383F31188BFF34F
:102C10006F8FBFF34F8FBA617B61BB69FB623B6B08
:102C20009B6BBB62BB6A002B2FD03B6B93F844308D
:102C300087F82730B968386B00F0D8F8BB6A5A1E9D
:102C40003B6B9A6397F92730B3F1FF3F12D13B6B8F
:102C50001B69002B16D03B6B1033184600F014FE96
:102C60000346002B0ED07B68002B0BD07B68012223
:102C70001A6007E097F827300133DBB25AB23B6B9A
:102C800083F8442001237B6301E000237B63FB6A1C
:102C90003B613B6983F3118800BF7B6B1846383773
:102CA000BD4680BD80B584B000AF78607B68FB60B6
:102CB000FB68002B0AD14FF0500383F31188BFF358
:102CC0006F8FBFF34F8FBB6000BFFEE7F86800F067
:102CD0005BF9FB6893F84630002B02D1F86801F0ED
:102CE00041FF00BF1037BD4680BD80B485B000AF46
:102CF00078607B685B6A002B06D07B681B6B1B6867
:102D0000C3F13803FB6001E00023FB60FB68184659
:102D10001437BD4680BC704780B586B000AFF86000
:102D2000B9607A6000237B61FB689B6B3B61FB6849
:102D30001B6C002B0DD1FB681B68002B4DD1FB6871
:102D40005B68184600F0EEFF7861FB6800225A606D
:102D500043E07B68002B19D1FB689868FB681B6C0B
:102D60001A46B96802F03EF8FB689A68FB681B6C6B
:102D70001A44FB689A60FB689A68FB685B689A4231
:102D80002BD3FB681A68FB689A6026E0FB68D8685A
:102D9000FB681B6C1A46B96802F024F8FB68DA6815
:102DA000FB681B6C5B421A44FB68DA60FB68DA68FC
:102DB000FB681B689A4207D2FB685A68FB681B6C69
:102DC0005B421A44FB68DA607B68022B05D13B69E1
:102DD000002B02D03B69013B3B613B695A1CFB68FD
:102DE0009A637B6918461837BD4680BD80B582B0AE
:102DF00000AF786039607B681B6C002B18D07B6853
:102E0000DA687B681B6C1A447B68DA607B68DA6876
:102E10007B685B689A4203D37B681A687B68DA60D8
:102E20007B68D9687B681B6C1A46386801F0DAFF4A
:102E300000BF0837BD4680BD80B584B000AF786064
:102E400001F0CCFC7B6893F84530FB7311E07B68A4
:102E50005B6A002B12D07B682433184600F014FD07
:102E60000346002B01D000F0EBFDFB7B013BDBB206
:102E7000FB7397F90F30002BE9DC00E000BF7B68A3
:102E8000FF2283F8452001F0D9FC01F0A7FC7B6804
:102E900093F84430BB7311E07B681B69002B12D0A0
:102EA0007B681033184600F0EFFC0346002B01D07E
:102EB00000F0C6FDBB7B013BDBB2BB7397F90E3064
:102EC000002BE9DC00E000BF7B68FF2283F8442090
:102ED00001F0B4FC00BF1037BD4680BD80B584B0A2
:102EE00000AF786001F07AFC7B689B6B002B02D10D
:102EF0000123FB6001E00023FB6001F09FFCFB6805
:102F000018461037BD4680BD80B584B000AF7860EC
:102F100001F064FC7B689A6B7B68DB6B9A4202D1A0
:102F20000123FB6001E00023FB6001F087FCFB68EC
:102F300018461037BD4680BD80B485B000AF7860BC
:102F400039600023FB6014E00E4AFB6852F833300E
:102F5000002B0BD10B49FB683A6841F83320094A32
:102F6000FB68DB0013447A685A6006E0FB680133B3
:102F7000FB60FB68072BE7D900BF00BF1437BD46D5
:102F800080BC70479407002080B485B000AF7860A3
:102F90000023FB6016E0104AFB68DB0013445B680B
:102FA0007A689A420BD10C4AFB68002142F8331030
:102FB000094AFB68DB00134400225A6006E0FB6804
:102FC0000133FB60FB68072BE5D900BF00BF143756
:102FD000BD4680BC704700BF9407002080B586B016
:102FE00000AFF860B9607A60FB687B6101F0F6FBC6
:102FF0007B6993F844305BB2B3F1FF3F03D17B6947
:10300000002283F844207B6993F845305BB2B3F12A
:10301000FF3F03D17B69002283F8452001F00EFCBD
:103020007B699B6B002B06D17B6924337A68B96876
:10303000184600F0FDFB7869FFF7FEFE00BF183769
:10304000BD4680BD80B58EB004AFF860B9607A60CF
:103050003B607B6B002B0AD14FF0500383F3118848
:10306000BFF36F8FBFF34F8F3B6200BFFEE7BB6BB9
:10307000002B0AD14FF0500383F31188BFF36F8FF9
:10308000BFF34F8FFB6100BFFEE75C233B613B69F1
:103090005C2B0AD04FF0500383F31188BFF36F8F7E
:1030A000BFF34F8FBB6100BFFEE7BB6B002B1ED091
:1030B0007B6B002B1BD0BB6B7B627B6A7A6B1A63CA
:1030C0007B6A022283F85920002303937B6A0293D0
:1030D00007F1140301933B6B00933B687A68B9686E
:1030E000F86800F050F8786A00F0D4F801E00023A6
:1030F0007B617B6918462837BD4680BD80B58CB0A2
:1031000004AFF860B9603B601346FB80FB889B000E
:10311000184601F063FC78617B69002B0ED05C20BF
:1031200001F05CFCF861FB69002B03D0FB697A6954
:103130001A6305E0786901F015FD01E00023FB61E9
:10314000FB69002B17D0FB69002283F85920FA880D
:1031500000230393FB690293FB6A0193BB6A00930C
:103160003B68B968F86800F00EF8F86900F092F86A
:103170000123BB6102E04FF0FF33BB61BB6918461E
:103180002037BD4680BD80B588B000AFF860B9601B
:103190007A603B603B6B186B7B689B001A46A521ED
:1031A00001F0F4FD3B6B1A6B7B6803F18043013B3C
:1031B0009B001344BB61BB6923F00703BB61BB6980
:1031C00003F00703002B0AD04FF0500383F311885C
:1031D000BFF36F8FBFF34F8F7B6100BFFEE700230C
:1031E000FB6112E0BA68FB69134419783A6BFB691A
:1031F000134434330A461A70BA68FB6913441B78C7
:10320000002B06D0FB690133FB61FB690F2BE9D969
:1032100000E000BF3B6B002283F84320BB6A372BE2
:1032200001D93723BB623B6BBA6ADA623B6BBA6A7D
:10323000DA643B6B00221A653B6B04331846FEF7D9
:1032400066FE3B6B18331846FEF761FE3B6B3A6B2C
:103250001A61BB6AC3F138023B6B9A613B6B3A6BF4
:103260005A623B6B00225A653B6B002283F8582060
:103270003A68F968B86901F0C3F902463B6B1A6015
:10328000FB6A002B02D0FB6A3A6B1A6000BF203742
:10329000BD4680BD80B582B000AF786001F09EFA77
:1032A0002D4B1B6801332C4A13602C4B1B68002BE1
:1032B00009D12A4A7B681360274B1B68012B10D168
:1032C00000F0E2FB0DE0264B1B68002B09D1234BDD
:1032D0001B68DA6A7B68DB6A9A4202D81F4A7B68FD
:1032E0001360204B1B6801331E4A13601D4B1A6884
:1032F0007B685A647B68DA6A1B4B1B689A4203D965
:103300007B68DB6A184A13607B68DA6A13469B00A5
:1033100013449B00154A1A447B680433194610462F
:10332000FEF701FE01F08AFA0D4B1B68002B0ED050
:103330000A4B1B68DA6A7B68DB6A9A4207D20C4B3D
:103340004FF080521A60BFF34F8FBFF36F8F00BFF3
:103350000837BD4680BD00BFA80C0020D407002060
:10336000B40C0020C40C0020B00C0020D8070020B2
:1033700004ED00E080B58AB004AF0023BB600023F9
:103380007B603A46391D07F108031846FEF76EFDCB
:1033900039687B68BA680292019300230093002386
:1033A0000A4621492148FFF74DFE0346204A136093
:1033B0001F4B1B68002B02D001237B6101E000231F
:1033C0007B617B69012B02D100F008FE78617B698B
:1033D000012B16D14FF0500383F31188BFF36F8F89
:1033E000BFF34F8F3B6100BF124B4FF0FF321A60AB
:1033F000114B01221A60114B00221A6001F07CF976
:103400000EE07B69B3F1FF3F0AD14FF0500383F325
:103410001188BFF36F8FBFF34F8FFB6000BFFEE7D4
:1034200000BF1837BD4680BD644E0008593A0008F9
:10343000CC0C0020C80C0020B40C0020AC0C0020E8
:1034400080B400AF044B1B680133034A136000BF14
:10345000BD4680BC704700BFD00C002080B584B052
:1034600000AF0023FB600023BB60424B1B68002BB6
:103470000AD14FF0500383F31188BFF36F8FBFF36E
:103480004F8F3B6000BFFEE701F0A8F9394B1B6886
:10349000013B384A1360374B1B68002B62D1364B17
:1034A0001B68002B5ED02FE0344BDB68DB68FB60D1
:1034B000FB6818331846FEF791FDFB680433184685
:1034C000FEF78CFDFB68DA6A2D4B1B689A4203D924
:1034D000FB68DB6A2A4A1360FB68DA6A13469B00C2
:1034E00013449B00274A1A44FB68043319461046CC
:1034F000FEF719FDFB68DA6A234B1B68DB6A9A4208
:1035000002D3224B01221A601C4B1B68002BCBD12B
:10351000FB68002B01D000F055FB1D4B1B687B6046
:103520007B68002B10D000F045F80346002B02D03A
:10353000164B01221A607B68013B7B607B68002B85
:10354000F1D1134B00221A60104B1B68002B09D0DD
:103550000123BB600F4B4FF080521A60BFF34F8FB7
:10356000BFF36F8F01F06AF9BB6818461037BD468C
:1035700080BD00BFD00C0020A80C0020680C0020EB
:10358000B00C0020D8070020D4070020BC0C00207D
:10359000B80C002004ED00E080B483B000AF044B11
:1035A0001B687B607B6818460C37BD4680BC704743
:1035B000AC0C002080B586B000AF00237B61514B7E
:1035C0001B68002B40F08E804F4B1B6801333B6122
:1035D0004D4A3B6913603B69002B20D14B4B1B6864
:1035E0001B68002B0AD04FF0500383F31188BFF300
:1035F0006F8FBFF34F8F3B6000BFFEE7434B1B68ED
:10360000FB60434B1B68414A1360414AFB681360EF
:10361000404B1B6801333F4A136000F0D3FA3E4B26
:103620001B683A699A424ED3384B1B681B68002BC3
:1036300001D1012300E00023002B04D0364B4FF0D2
:10364000FF321A603FE0314B1B68DB68DB68BB6010
:10365000BB685B687B603A697B689A4203D22E4AFA
:103660007B6813602FE0BB6804331846FEF7B6FC96
:10367000BB689B6A002B04D0BB6818331846FEF762
:10368000ADFCBB68DA6A254B1B689A4203D9BB685C
:10369000DB6A224A1360BB68DA6A13469B00134454
:1036A0009B001F4A1A44BB68043319461046FEF7B4
:1036B0003AFCBB68DA6A1B4B1B68DB6A9A42B3D3DD
:1036C00001237B61B0E7174B1B68DA6A1449134684
:1036D0009B0013449B000B441B68012B07D901235B
:1036E0007B6104E0104B1B6801330F4A13600F4BE2
:1036F0001B68002B01D001237B617B6918461837BA
:10370000BD4680BDD00C0020AC0C0020600C002019
:10371000640C0020C00C0020C80C0020B00C00205D
:10372000D8070020D4070020B80C0020BC0C0020D3
:1037300080B485B000AF274B1B68002B03D0264B0D
:1037400001221A6041E0244B00221A60234B1B68BF
:10375000FB6010E0FB68002B0AD14FF0500383F3AD
:103760001188BFF36F8FBFF34F8F7B6000BFFEE701
:10377000FB68013BFB601A49FA6813469B0013443F
:103780009B000B441B68002BE4D0FA6813469B0097
:1037900013449B00124A1344BB60BB685B685A68C1
:1037A000BB685A60BB685A68BB6808339A4204D148
:1037B000BB685B685A68BB685A60BB685B68DB685B
:1037C000084A1360054AFB68136000BF1437BD4602
:1037D00080BC7047D00C0020BC0C0020B00C002036
:1037E000D8070020D407002080B584B000AF7860EF
:1037F00039607B68002B0AD14FF0500383F31188A6
:10380000BFF36F8FBFF34F8FFB6000BFFEE7074B27
:103810001B68183319467868FEF7A8FB0121386841
:1038200000F088FB00BF1037BD4680BDD4070020E4
:1038300080B586B000AFF860B9607A60FB68002B95
:103840000AD14FF0500383F31188BFF36F8FBFF39A
:103850004F8F7B6100BFFEE70A4B1B681833194688
:10386000F868FEF760FB7B68002B02D04FF0FF3357
:10387000BB607968B86800F05DFB00BF1837BD46D3
:1038800080BD00BFD407002080B586B000AF78604F
:103890007B68DB68DB683B613B69002B0AD14FF03A
:1038A000500383F31188BFF36F8FBFF34F8FFB601B
:1038B00000BFFEE73B6918331846FEF78FFB1E4B2F
:1038C0001B68002B1DD13B6904331846FEF786FBAD
:1038D0003B69DA6A194B1B689A4203D93B69DB6A78
:1038E000164A13603B69DA6A13469B0013449B0037
:1038F000134A1A443B69043319461046FEF713FB7A
:1039000005E03B69183319460E48FEF70CFB3B698E
:10391000DA6A0D4B1B68DB6A9A4205D901237B6189
:103920000A4B01221A6001E000237B617B69184683
:103930001837BD4680BD00BFD00C0020B00C002061
:10394000D8070020680C0020D4070020BC0C002001
:1039500080B483B000AF7860064B1A687B681A6049
:10396000054B1A687B685A6000BF0C37BD4680BCA7
:10397000704700BFC00C0020AC0C002080B588B0A0
:1039800000AF786039607B68002B0AD14FF050039C
:1039900083F31188BFF36F8FBFF34F8F3B6100BF7D
:1039A000FEE73B68002B0AD14FF0500383F31188E8
:1039B000BFF36F8FBFF34F8FFB6000BFFEE700F0D8
:1039C0000DFF1D4B1B68BB617B685B68BA69D31A2E
:1039D0007B613B681B68B3F1FF3F02D10023FB61B1
:1039E00023E07B681A68154B1B689A4207D07B68F6
:1039F0005B68BA699A4202D30123FB6115E03B6818
:103A00001B687A699A420BD23B681A687B69D21AA2
:103A10003B681A607868FFF79BFF0023FB6104E0B6
:103A20003B6800221A600123FB6100F007FFFB697D
:103A300018462037BD4680BDAC0C0020C00C0020CD
:103A400080B400AF034B01221A6000BFBD4680BCAA
:103A5000704700BFBC0C002080B582B000AF78601A
:103A600000F052F8064B1B68012BF9D9054B4FF0BB
:103A700080521A60BFF34F8FBFF36F8FF0E700BF24
:103A8000D807002004ED00E080B582B000AF00232D
:103A90007B600CE07A6813469B0013449B00124A3B
:103AA00013441846FEF714FA7B6801337B607B6889
:103AB000372BEFD90D48FEF70BFA0D48FEF708FA41
:103AC0000C48FEF705FA0C48FEF702FA0B48FEF721
:103AD000FFF90B4B054A1A600A4B054A1A6000BFF2
:103AE0000837BD4680BD00BFD8070020380C002035
:103AF0004C0C0020680C00207C0C0020940C002052
:103B0000600C0020640C002080B582B000AF19E08A
:103B100000F064FE104BDB68DB687B607B6804337D
:103B20001846FEF75BFA0D4B1B68013B0B4A13600E
:103B30000B4B1B68013B0A4A136000F07FFE78685C
:103B400000F010F8064B1B68002BE1D100BF00BF4E
:103B50000837BD4680BD00BF7C0C0020A80C0020AB
:103B6000900C002080B584B000AF78607B6893F83B
:103B70005930002B08D17B681B6B184600F0F2FF10
:103B8000786800F0EFFF18E07B6893F85930012B5C
:103B900003D1786800F0E6FF0FE07B6893F85930B6
:103BA000022B0AD04FF0500383F31188BFF36F8FBD
:103BB000BFF34F8FFB6000BFFEE700BF1037BD466D
:103BC00080BD000080B483B000AF0E4B1B681B6843
:103BD000002B01D1012300E00023002B04D00A4B6D
:103BE0004FF0FF321A6008E0064B1B68DB68DB68A9
:103BF0007B607B685B68044A136000BF0C37BD467E
:103C000080BC7047600C0020C80C002080B483B0DA
:103C100000AF0B4B1B68002B02D101237B6008E037
:103C2000084B1B68002B02D102237B6001E00023BC
:103C30007B607B6818460C37BD4680BC704700BF70
:103C4000B40C0020D00C002080B584B000AF7860A8
:103C50007B68BB600023FB607B68002B56D0BB6891
:103C6000DA6A2D4B1B68DB6A9A4246D2BB689B69B5
:103C7000002B06DB284B1B68DB6AC3F13802BB68EC
:103C80009A61BB685969BB68DA6A13469B001344A2
:103C90009B00224A1344994201D1012300E00023F2
:103CA000002B22D0BB6804331846FEF797F91A4B55
:103CB0001B68DA6ABB68DA62BB68DA6A184B1B6891
:103CC0009A4203D9BB68DB6A154A1360BB68DA6A9B
:103CD00013469B0013449B00104A1A44BB680433EC
:103CE00019461046FEF71FF904E00B4B1B68DA6A11
:103CF000BB68DA620123FB6008E0BB68DA6C064B44
:103D00001B68DB6A9A4201D20123FB60FB681846FC
:103D10001037BD4680BD00BFD4070020D807002063
:103D2000B00C002080B586B000AF78607B683B6146
:103D300000237B617B68002B56D02E4B1B683A69B1
:103D40009A420AD04FF0500383F31188BFF36F8F6C
:103D5000BFF34F8FFB6000BFFEE73B691B6D002B7D
:103D60000AD14FF0500383F31188BFF36F8FBFF375
:103D70004F8FBB6000BFFEE73B691B6D5A1E3B695E
:103D80001A653B69DA6A3B69DB6C9A422CD03B6965
:103D90001B6D002B28D13B6904331846FEF71EF932
:103DA0003B69DA6C3B69DA623B69DB6AC3F1380272
:103DB0003B699A613B69DA6A0F4B1B689A4203D9E7
:103DC0003B69DB6A0C4A13603B69DA6A13469B0065
:103DD00013449B00094A1A443B69043319461046B0
:103DE000FEF7A1F801237B617B6918461837BD46B1
:103DF00080BD00BFD4070020B00C0020D8070020F1
:103E000080B588B000AF786039607B68BB61012302
:103E10007B617B68002B6FD0BB691B6D002B0AD1C7
:103E20004FF0500383F31188BFF36F8FBFF34F8FB1
:103E3000FB6000BFFEE7BB69DB6C3A689A4202D9BF
:103E40003B68FB6102E0BB69DB6CFB61BB69DB6A61
:103E5000FA699A4250D0BB691B6D7A699A424BD17C
:103E6000274B1B68BA699A420AD14FF0500383F37B
:103E70001188BFF36F8FBFF34F8FBB6000BFFEE7AA
:103E8000BB69DB6A3B61BB69FA69DA62BB699B6942
:103E9000002B04DBFB69C3F13802BB699A61BB6983
:103EA00059693A6913469B0013449B00154A134411
:103EB000994201D1012300E00023002B1CD0BB69F3
:103EC00004331846FEF78AF8BB69DA6A0E4B1B68A2
:103ED0009A4203D9BB69DB6A0B4A1360BB69DA6A91
:103EE00013469B0013449B00064A1A44BB690433E3
:103EF00019461046FEF717F800BF2037BD4680BDB3
:103F0000D4070020D8070020B00C002080B400AFF8
:103F1000074B1B68002B04D0054B1B681A6D013240
:103F20001A65034B1B681846BD4680BC704700BF2E
:103F3000D407002080B584B000AF78603960214B91
:103F40001B68FB60204B1B6804331846FEF746F8DD
:103F50007B68B3F1FF3F0AD13B68002B07D01A4BB7
:103F60001B68043319461948FDF7DDFF26E0FA689F
:103F70007B681344BB60144B1B68BA685A60BA680C
:103F8000FB689A4209D2124B1A680F4B1B68043324
:103F900019461046FDF7EAFF10E00E4B1A680A4B6F
:103FA0001B68043319461046FDF7E0FF0A4B1B68F7
:103FB000BA689A4202D2084ABB68136000BF103741
:103FC000BD4680BDAC0C0020D4070020940C00201E
:103FD000640C0020600C0020C80C002080B58AB062
:103FE00004AF00237B6100F0CBFA1C4B1B68002B55
:103FF00021D00023FB600023BB603A1D07F10801BC
:1040000007F10C031846FDF749FF7968BB68FA68A9
:10401000029201930223009300230A46104911489B
:10402000FFF710F80346104A13600F4B1B68002B74
:1040300001D001237B617B69002B0AD14FF0500333
:1040400083F31188BFF36F8FBFF34F8F3B6100BFC6
:10405000FEE77B6918461837BD4680BD040D002079
:104060006C4E000889410008080D002080B58AB018
:1040700000AFF860B9607A603B6000237B62FB6848
:10408000002B0AD14FF0500383F31188BFF36F8FD9
:10409000BFF34F8F3B6200BFFEE71A4B1B68002B3C
:1040A0002AD0BB683B617B687B61FB68BB61BB68F6
:1040B000052B18DCFFF7AAFD0346022B09D1114B93
:1040C000186807F1100100233A6BFEF75BF978627C
:1040D00012E00C4B186807F1100100230022FEF7D4
:1040E00051F9786208E0074B186807F110010023C6
:1040F0003A68FEF745FA78627B6A18462837BD466B
:1041000080BD00BF040D002080B588B002AF78608C
:1041100039601C4B1B68DB68DB687B617B6904339F
:104120001846FDF75BFF7B69DB69012B22D17B69B8
:104130009A697B68D1187B683A68786900F0C8F89A
:104140000346002B16D00023009300237A68002139
:104150007869FFF78BFF38613B69002B0AD14FF07C
:10416000500383F31188BFF36F8FBFF34F8FFB6052
:1041700000BFFEE77B695B6A7869984700BF183724
:10418000BD4680BDFC0C002080B584B000AF7860D7
:1041900007F10803184600F057F8F860BB681946A5
:1041A000F86800F003F800F0D5F8F1E780B584B0C6
:1041B00000AF78603960FFF743F907F1080318464C
:1041C00000F066F8F860BB68002B30D13B68002B2C
:1041D0000AD17A68FB689A4206D8FFF73FF9F96876
:1041E0007868FFF791FF24E03B68002B08D0134B61
:1041F0001B681B68002B0CBF01230023DBB23B6054
:104200000F4B18687A68FB68D31A3A681946FEF7AC
:10421000E5FEFFF723F90346002B0AD1094B4FF0C7
:1042200080521A60BFF34F8FBFF36F8F01E0FFF72B
:1042300015F900BF1037BD4680BD00BF000D00203E
:10424000040D002004ED00E080B485B000AF78607C
:104250000E4B1B681B68002B0CBF01230023DBB235
:104260001A467B681A607B681B68002B05D1074BD8
:104270001B68DB681B68FB6001E00023FB60FB68D8
:1042800018461437BD4680BC704700BFFC0C0020A8
:1042900080B584B000AF7860FFF77EF9F8600B4B13
:1042A0001B68FA689A4205D200F008F97B6801227F
:1042B0001A6002E07B6800221A60044AFB681360FF
:1042C000FB6818461037BD4680BD00BF0C0D0020AE
:1042D00080B586B000AFF860B9607A603B600023BB
:1042E0007B61FB68BA685A60FB68FA681A61BA6851
:1042F0007B689A4212D87A683B68D21AFB689B693D
:104300009A4202D301237B611BE0104B1A68FB68C1
:10431000043319461046FDF729FE12E07A683B681F
:104320009A4206D2BA683B689A4202D301237B6163
:1043300007E0074B1A68FB68043319461046FDF77F
:1043400015FE7B6918461837BD4680BD000D00205C
:10435000FC0C002080B58EB002AF9DE07B68002B86
:1043600018DA3B1D0433FB62FB6A002B0AD14FF0C5
:10437000500383F31188BFF36F8FBFF34F8FFB613F
:1043800000BFFEE7FB6A1B68FA6A5068FA6A926827
:10439000114698477B68002B7EDBFB68BB62BB6ADB
:1043A0005B69002B04D0BB6A04331846FDF716FE88
:1043B0003B461846FFF76CFF78627B68092B6AD88A
:1043C00001A252F823F000BFF1430008F1430008B6
:1043D000F1430008994400084D4400088544000852
:1043E000F1430008F1430008994400084D440008D7
:1043F000BA68BB6A9B69D118BB687A6AB86AFFF76A
:1044000067FF0346002B47D0BB6A5B6AB86A9847D0
:10441000BB6ADB69012B3FD1BA68BB6A9B691A444E
:104420000023009300230021B86AFFF71FFE3862C3
:104430003B6A002B30D14FF0500383F31188BFF358
:104440006F8FBFF34F8FBB6100BFFEE7BA68BB6AD7
:104450009A61BB6A9B69002B0AD14FF0500383F32A
:104460001188BFF36F8FBFF34F8F7B6100BFFEE7F3
:10447000BB6A9A697B6AD1187B6A7A6AB86AFFF765
:1044800027FF09E0BB6A93F82C30002B04D1B86AEF
:1044900000F068FB00E000BF074B1B68391D0022DD
:1044A0001846FEF793F90346002B7FF457AF00BF81
:1044B00000BF3037BD4680BD040D002080B588B0F8
:1044C00002AF45E02C4B1B68DB681B683B612A4B45
:1044D0001B68DB68DB68FB60FB6804331846FDF78C
:1044E0007DFDFB685B6AF8689847FB68DB69012B18
:1044F0002ED1FB689B693A691344BB60BA683B697B
:104500009A420ED9FB68BA685A60FB68FA681A6169
:10451000194B1A68FB68043319461046FDF726FD4F
:1045200016E00023009300233A690021F868FFF7A2
:104530009DFD78607B68002B0AD14FF0500383F318
:104540001188BFF36F8FBFF34F8F3B6000BFFEE753
:10455000094B1B681B68002BB4D1074B1B687B61A0
:10456000064B1B68044A1360044A7B69136000BF52
:104570001837BD4680BD00BFFC0C0020000D002098
:1045800080B582B002AF00F029F9154B1B68002BF3
:1045900020D11448FDF79CFC1348FDF799FC134B00
:1045A000104A1A60124B104A1A6000230093114BF4
:1045B000114A10210A20FDF7A3FD0346084A1360A3
:1045C000074B1B68002B05D0054B1B680B49184691
:1045D000FEF7B2FC00F032F900BFBD4680BD00BF5F
:1045E000040D0020D40C0020E80C0020FC0C00205E
:1045F000000D0020B00D0020100D0020744E0008AA
:1046000080B485B000AFF860B9607A60FB68043BA5
:10461000FB60FB684FF080721A60FB68043BFB6034
:10462000BB6823F00102FB681A60FB68043BFB6077
:10463000084AFB681A60FB68143BFB607A68FB68F9
:104640001A60FB68203BFB60FB6818461437BD46C8
:1046500080BC70475946000880B485B000AF002385
:104660007B60124B1B68B3F1FF3F0AD04FF0500341
:1046700083F31188BFF36F8FBFF34F8FFB6000BFD1
:10468000FEE74FF0500383F31188BFF36F8FBFF342
:104690004F8FBB6000BF00BF7B68002BFCD000BF0A
:1046A00000BF1437BD4680BC704700BFA400002087
:1046B000074B19680868B0E8F00F80F30988BFF36A
:1046C0006F8F4FF0000080F311884EF00D0E704791
:1046D000D407002000BF00BF06480068006880F3D0
:1046E000088862B661B6BFF34F8FBFF36F8F00DFEC
:1046F00000BF00BF08ED00E080B584B000AF324BD2
:10470000FB60FB681B78DBB27B60FB68FF221A70E2
:10471000FB681B78DBB2FB70FB78DBB203F0500365
:10472000DAB22A4B1A702A4B07221A6009E0284B8A
:104730001B68013B264A1360FB78DBB25B00DBB2EF
:10474000FB70FB78DBB203F08003802BEFD0204BB3
:104750001B68C3F10703042B0AD04FF0500383F307
:104760001188BFF36F8FBFF34F8FBB6000BFFEE7B1
:10477000174B1B681B02164A1360154B1B6803F48A
:10478000E063134A13607B68DAB2FB681A70114B5E
:104790001B68104A43F4700313600E4B1B680D4AEC
:1047A00043F07043136000F0B9F80B4B00221A601D
:1047B000FFF792FFFEF7BCFFFFF74EFF00231846FE
:1047C0001037BD4680BD00BF00E400E0000E0020B1
:1047D000040E002020ED00E0A400002080B483B08F
:1047E00000AF4FF0500383F31188BFF36F8FBFF317
:1047F0004F8F7B6000BF0F4B1B6801330D4A136066
:104800000C4B1B68012B0FD10B4B1B68DBB2002B31
:104810000AD04FF0500383F31188BFF36F8FBFF3BB
:104820004F8F3B6000BFFEE700BF0C37BD4680BC2A
:10483000704700BFA400002004ED00E080B483B006
:1048400000AF114B1B68002B0AD14FF0500383F3CC
:104850001188BFF36F8FBFF34F8F7B6000BFFEE700
:10486000094B1B68013B084A1360074B1B68002B70
:1048700005D100233B603B6883F3118800BF00BF74
:104880000C37BD4680BC7047A4000020000000002B
:10489000EFF30980BFF36F8F0D4B1A6820E9F00F1B
:1048A00010602DE908404FF0500080F31188FEF7AA
:1048B0003FFF4FF0000080F31188BDE80840196801
:1048C0000868B0E8F00F80F30988BFF36F8F704776
:1048D000D407002000BF00BF80B582B000AF4FF00A
:1048E000500383F31188BFF36F8FBFF34F8F7B604B
:1048F00000BFFEF75FFE0346002B03D0064B4FF0D0
:1049000080521A6000233B603B6883F3118800BF2C
:1049100000BF0837BD4680BD04ED00E080B400AFA5
:104920000A4B00221A600A4B00221A60094B1B68CE
:10493000094AA2FB03239B09084A013B1360034B6E
:1049400007221A6000BFBD4680BC704710E000E03F
:1049500018E000E098000020D34D621014E000E061
:1049600080B485B000AFEFF30583FB60FB680F2BCD
:1049700014D9164AFB6813441B78FB72144B1B783E
:10498000FA7A9A420AD24FF0500383F31188BFF3A8
:104990006F8FBFF34F8F7B6000BFFEE70D4B1B682F
:1049A00003F4E0620C4B1B689A420AD94FF05003A3
:1049B00083F31188BFF36F8FBFF34F8F3B6000BF4E
:1049C000FEE700BF1437BD4680BC7047F0E300E04F
:1049D000000E00200CED00E0040E002080B58AB02F
:1049E00000AF78600023FB61FEF72AFD584B1B687F
:1049F000002B01D100F010F9564B1A687B68134068
:104A0000002B40F08E807B68002B1DD008227B6835
:104A100013447B607B6803F00703002B14D07B6892
:104A200023F0070308337B607B6803F00703002B48
:104A30000AD04FF0500383F31188BFF36F8FBFF399
:104A40004F8F7B6100BFFEE77B68002B69D0424B34
:104A50001B687A689A4264D8404B3B623F4B1B68A4
:104A60007B6204E07B6A3B627B6A1B687B627B6AD9
:104A70005B687A689A4203D97B6A1B68002BF1D184
:104A8000334B1B687A6A9A424BD03B6A1B680822F8
:104A90001344FB617B6A1A683B6A1A607B6A5A6836
:104AA0007B68D21A08235B009A421FD97A6A7B6816
:104AB0001344BB61BB6903F00703002B0AD04FF01E
:104AC000500383F31188BFF36F8FBFF34F8F3B61A8
:104AD00000BFFEE77B6A5A687B68D21ABB695A60DE
:104AE0007B6A7A685A60B86900F0F8F81A4B1A685D
:104AF0007B6A5B68D31A184A1360174B1A68184B05
:104B00001B689A4203D2144B1B68154A13607B6AD8
:104B10005A68104B1B681A437B6A5A607B6A0022F2
:104B20001A60FEF79BFCFB6903F00703002B0AD019
:104B30004FF0500383F31188BFF36F8FBFF34F8F94
:104B4000FB6000BFFEE7FB6918462837BD4680BD05
:104B5000101A00201C1A0020141A0020081A002025
:104B6000181A002080B586B000AF78607B687B6142
:104B70007B68002B48D008235B427A6913447B6131
:104B80007B693B613B695A68214B1B681340002BD2
:104B90000AD14FF0500383F31188BFF36F8FBFF337
:104BA0004F8FFB6000BFFEE73B691B68002B0AD0FC
:104BB0004FF0500383F31188BFF36F8FBFF34F8F14
:104BC000BB6000BFFEE73B695A68114B1B6813408E
:104BD000002B19D03B691B68002B15D13B695A6823
:104BE0000B4B1B68DB431A403B695A60FEF728FCFD
:104BF0003B695A68074B1B681344064A13603869BF
:104C000000F06CF8FEF72AFC00BF1837BD4680BDE7
:104C10001C1A0020141A002080B485B000AF4FF495
:104C20004063BB60274BFB60FB6803F00703002B6E
:104C30000CD0FB680733FB60FB6823F00703FB60C5
:104C4000BA68FB68D31A1F4A1344BB60FB687B60D9
:104C50001D4A7B6813601C4B00225A607B68BA684F
:104C60001344FB600822FB689B1AFB60FB6823F07F
:104C70000703FB60FB68154A1360144B1B68002296
:104C80005A60124B1B6800221A607B683B603B68CD
:104C9000FA68D21A3B685A600C4B1A683B681A6073
:104CA0003B685B680A4A13603B685B68094A1360AB
:104CB000094B4FF000421A6000BF1437BD4680BC5C
:104CC000704700BF080E0020081A0020101A0020AC
:104CD000181A0020141A00201C1A002080B485B075
:104CE00000AF7860274BFB6002E0FB681B68FB604D
:104CF000FB681B687A689A42F7D8FB68BB60FB6860
:104D00005B68BA6813447A689A4208D1FB685A68AB
:104D10007B685B681A44FB685A60FB687B607B6851
:104D2000BB607B685B68BA681A44FB681B689A4280
:104D300018D1FB681A68144B1B689A420DD07B6827
:104D40005A68FB681B685B681A447B685A60FB689A
:104D50001B681A687B681A6008E00B4B1A687B684E
:104D60001A6003E0FB681A687B681A60FA687B685F
:104D70009A4202D0FB687A681A6000BF1437BD46B9
:104D800080BC7047081A0020101A00200346024415
:104D9000934200D1704703F8011BF9E770B5002674
:104DA0000C4D0D4C641BA410A64209D100F028F84C
:104DB00000260A4D0A4C641BA410A64205D170BD02
:104DC00055F8043B98470136EEE755F8043B984701
:104DD0000136F2E7204F0008204F0008204F00085E
:104DE000244F00080A44914200F1FF3300D170477C
:104DF00010B511F8014B914203F8014FF9D110BDE4
:104E0000F8B500BFF8BC08BC9E467047F8B500BFB7
:084E1000F8BC08BC9E46704787
:104E18007461736B310000007461736B32000000C1
:104E28006D79517565756530310000006D7942699D
:104E38006E61727953656D303100000044697265A6
:104E48006374696F6E203D3E200000004368617204
:104E58006163746572203D3E2000000049444C4562
:104E680000000000546D722053766300546D725137
:104E78000000000031323341343536423738394387
:104E88002A302344184E00080000000000000000EB
:104E980000000000000000000002000018000000F0
:104EA8000000000000000000204E00080000000084
:104EB80000000000000000000000000000020000E8
:104EC800280000000000000000000000284E000834
:104ED80000000000000000000000000000000000CA
:104EE80000000000344E0008000000000000000030
:104EF80000000000000000000000000001020304A0
:104F08000607080902030405060708090A0B0C0D21
:084F18000E0F10100102000051
:044F2000350100084F
:044F2400110100086F
:104F2800000801400A000000000801400B000000D2
:104F3800000801400C000000000801400F000000BC
:104F4800000C014003000000000C014004000000B8
:104F5800000C014005000000000C014006000000A4
:104F6800000801400400000000080140050000009E
:104F78000008014006000000000801400000000091
:104F88000008014001000000000801400200000084
:104F98000008014003000000010000000000FF00BD
:104FA8000008014008080000000C01400308000048
:104FB800000C0140090800000024F4001000000063
:084FC80001000000AAAAAAAA38
:0400000508000DB131
:00000001FF
